:020000040800F2
:100000009810002009050008650500080B19000874
:10001000650500086505000865050008000000008A
:10002000000000000000000000000000650500085E
:100030006505000800000000650500083506000899
:1000400065050008650500086505000865050008E8
:1000500065050008650500086505000865050008D8
:1000600065050008650500086505000865050008C8
:1000700065050008650500086505000865050008B8
:1000800065050008650500086505000865050008A8
:100090006505000865050008650500086505000898
:1000A0006505000865050008650500086505000888
:1000B0006505000865050008650500086505000878
:1000C0006505000865050008650500086505000868
:1000D0006505000865050008650500089109000828
:1000E0006505000865050008650500086505000848
:1000F0006505000865050008650500086505000838
:100100006505000865050008650500086505000827
:100110006505000865050008650500086505000817
:100120006505000865050008650500086505000807
:1001300065050008650500086505000865050008F7
:1001400065050008650500086505000865050008E7
:1001500065050008650500086505000865050008D7
:1001600065050008650500086505000865050008C7
:1001700065050008650500086505000865050008B7
:10018000650500086505000880B582B000AF78609D
:10019000144B1B785A1CD1B2124A11701A467B6854
:1001A000D9B2114B99540F4B1B781A460E4B0021B4
:1001B00099540C4B1B7801330F2B05D87B680A2B05
:1001C00002D07B68002B0AD1064B00221A70064B26
:1001D00000221946042001F08FFB0346002B08374C
:1001E000BD4680BD780400206804002080B58AB038
:1001F00000AF7860396000237B6200233B620023FC
:10020000FB610023BB617B681B8A9BB27B627B6ABC
:1002100023F440537B623B68DB881A467B6A1343B6
:100220007B627B6A9AB27B681A827B689B899BB2ED
:100230007B627B6A23F4B05323F00C037B623B6840
:100240009A883B681B8913439AB23B685B891343C6
:100250009BB21A467B6A13437B627B6A9AB27B68C5
:100260009A817B689B8A9BB27B627B6A23F4407392
:100270007B623B689B891A467B6A13437B627B6A7D
:100280009AB27B689A8207F10803184600F0B4FC22
:100290007B68304A934203D07B682F4A934202D155
:1002A0007B693B6201E03B693B627B689B899BB257
:1002B0001BB2002B0CDA3A6A13469B0013449A00D7
:1002C0001A443B681B685B00B2FBF3F3FB610BE075
:1002D0003A6A13469B0013449A001A443B681B6811
:1002E0009B00B2FBF3F3FB61FB691C4AA2FB0323F7
:1002F0005B091B017B627B6A1B09642202FB03F31F
:10030000FA69D31ABB617B689B899BB21BB2002B35
:100310000CDABB69DB003233104AA2FB03235B0912
:1003200003F007037A6A13437B620BE0BB691B018E
:1003300032330A4AA2FB03235B0903F00F037A6AF4
:1003400013437B627B6A9AB27B681A8100BF2837AD
:10035000BD4680BD00100140001401401F85EB51D7
:1003600080B483B000AF78600B46FB70FB78002B45
:1003700008D07B689B899BB243F400539AB27B6898
:100380009A8107E07B689B899BB223F400539AB261
:100390007B689A8100BF0C37BD4680BC704700BFA8
:1003A00080B483B000AF78600B467B807B88C3F35A
:1003B00008039AB27B689A8000BF0C37BD4680BCA8
:1003C000704700BF80B487B000AF78600B467B8079
:1003D00013467B7000233B610023FB600023BB605E
:1003E00000237B617B687B617B88DBB25B09DBB2CE
:1003F0003B617B8803F01F03FB600122FB6802FA6C
:1004000003F3BB603B69012B03D17B690C337B6138
:1004100009E03B69022B03D17B6910337B6102E069
:100420007B6914337B617B78002B06D07B697A690A
:100430001168BA680A431A6006E07B697A69116834
:10044000BA68D2430A401A6000BF1C37BD4680BC60
:10045000704700BF80B487B000AF78600B467B80E8
:100460000023FB6000237B610023BB600023FB743F
:100470007B88DBB25B09DBB2BB607B8803F01F03C8
:100480007B6101227B6902FA03F37B61BB68012B6C
:1004900007D17B689B899BB21A467B6913407B61BD
:1004A00011E0BB68022B07D17B681B8A9BB21A46FE
:1004B0007B6913407B6106E07B689B8A9BB21A468E
:1004C0007B6913407B617B881B0A9BB2FB60012226
:1004D000FB6802FA03F3FB607B681B889BB21A4639
:1004E000FB681340FB607B69002B05D0FB68002B89
:1004F00002D00123FB7401E00023FB74FB7C18464F
:100500001C37BD4680BC704780B582B000AF104B31
:100510007B60104B3B6007E03B681A1D3A607A68CD
:10052000111D796012681A603B680B4A9342F3D33D
:100530000A480B494FF000028842B8BF40F8042B2C
:10054000FADB00F0A5F800BF0837BD4680BD00BF4C
:10055000D41F000800000020680400206804002068
:100560009808002080B400AFFEE700BF80B483B0DD
:1005700000AF0346FB71084997F907305B09FA7928
:1005800002F01F02012000FA02F241F8232000BF0E
:100590000C37BD4680BC704700E100E080B483B0FA
:1005A00000AF03463960FB7197F90730002B0BDA77
:1005B0000D49FB7903F00F03043B3A68D2B21201F4
:1005C000D2B20B441A7609E0084997F907303A6825
:1005D000D2B21201D2B20B4483F8002300BF0C3711
:1005E000BD4680BC704700BF00ED00E000E100E0C8
:1005F00080B582B000AF78607B68B3F1807F01D3B3
:10060000012311E00A4A7B6823F07F43013B5360DA
:100610000F214FF0FF30FFF7C1FF054B00229A601A
:10062000034B07221A60002318460837BD4680BDD9
:1006300010E000E080B400AF044B1B680133034AB4
:10064000136000BFBD4680BC704700BF940400200B
:1006500080B582B000AF0C490C4800F0B3FE002317
:100660007B6000237B6007E0074A7B68134400221D
:100670001A707B6801337B607B68B3F5007FF3DB26
:1006800000BF0837BD4680BD98040020A01E0008AA
:1006900080B5ADF5826D00AF01F042F900F092F83F
:1006A00001F06CF9384B1B68384AA2FB03239B0905
:1006B0001846FFF79DFF0346002B00D0FEE70121FF
:1006C000012000F061FB0121022000F03FFB4022ED
:1006D0002F49304800F0E4FE2F49304800F05EFA20
:1006E00000F0F6F800F0C6F82D4B1A682D4B1B6889
:1006F0001946104600F09AF82B4B1B684FF48C7289
:100700001146184600F0CAF9284B1A6807F501731C
:100710002749184600F06AFEC7F8080407F5017378
:10072000184600F007FA0023C7F80C3419E01A49FC
:100730001A4800F033FA194B1A68174B1B68381D1A
:100740001C4900F053FEC7F804043B1D184600F096
:10075000F1F9194800F054F8D7F80C340133C7F810
:100760000C34D7F80C34022BE1DD144800F0E2F928
:1007700000F0C8F9124800F043F80023184607F5C6
:100780008267BD4680BD00BF54040020D34D621077
:1007900000040240800400208C040020900400200B
:1007A0000C00002010000020140000200800002091
:1007B000DC1E0008E41E000880969800FC1E00085D
:1007C00040420F0080B582B000AF0121082000F048
:1007D000BDFA4FF470433B6001233B710023BB71B2
:1007E00003237B710023FB713B461946034800F04D
:1007F00077FF00BF0837BD4680BD00BF000C024038
:1008000080B483B000AF78607A6813465B0013440D
:10081000DB007B6000BF7B685A1E7A60002BFAD138
:1008200000BF0C37BD4680BC704700BF80B5ADF53A
:10083000047D00AF3B1D18603B4619603B463A1DE6
:1008400007F10C001B681268084900F0CFFDC7F8DB
:100850000C0207F10C03184600F0F0F80448FFF70B
:10086000CFFF00BF07F50477BD4680BD081F000815
:100870008096980080B500AF0F4800F0DFF80F4871
:10088000FFF7BEFF0E4800F0D9F80C48FFF7B8FF9D
:100890000C4800F0D3F80948FFF7B2FF0A4800F00F
:1008A000CDF80648FFF7ACFF084800F0C7F803484A
:1008B000FFF7A6FF00BF80BD201F000880841E0038
:1008C000301F0008401F0008541F0008641F000864
:1008D00080B588B000AF4FF4C06001F045F9012148
:1008E000042000F033FA01214FF4802000F04CFA8C
:1008F0004FF44063BB6102233B770023BB770123A6
:10090000FB7702237B7707F1180319461E4800F096
:10091000E7FE07220A211C4800F0A6FF07220B2150
:10092000194800F0A1FF4FF4E133BB600023BB8105
:100930000023FB8100233B820023BB820C237B82AC
:1009400007F1080319461148FFF750FC012240F255
:1009500025510E48FFF736FD27233B7101237B719C
:100960000123BB710123FB713B1D184601F00EF9F9
:100970002720FFF7FBFD01210448FFF7F1FC00BF32
:100980002037BD4680BD00BF00080240004800403F
:1009900080B584B000AF40F225512548FFF75AFDDD
:1009A0000346002B40D0224B9B88FB80204B9B882A
:1009B0009BB2FB731F4B1B68002B35D1FB7B1F2B9E
:1009C00002D9FB7B7E2B05D9FB7B0A2B02D0FB7B5C
:1009D0000D2B29D1FB7B0A2B01D17C23FB73FB7BE5
:1009E0000D2B01D15C23FB73134801F0E9F9034699
:1009F0003B604FF480623B68934205DA0E4A3B68E5
:100A00001344FA7B1A700FE00023BB6007E00A4A28
:100A1000BB68134400221A70BB680133BB604FF4FB
:100A20008062BB689342F2DB00BF1037BD4680BDD9
:100A3000004800407C0400209804002080B584B069
:100A400000AF7860134B1B68002B01D1FFF700FE4D
:100A5000786801F0B5F90346BB600023FB6010E045
:100A6000FB687A6813441B78DBB29BB219460A48CC
:100A7000FFF796FC4FF4FA70FFF7C2FEFB680133F4
:100A8000FB60FA68BB689A42EADB00BF1037BD46DC
:100A900080BD00BF7C0400200048004080B5ADF55B
:100AA000047D00AF3B1D18603B4619601248FFF7FC
:100AB000A7FE3B463A1D07F10C001B6812680F4960
:100AC00000F094FCC7F80C0207F10C031846FFF77E
:100AD000B5FF0948FFF794FE0748FFF791FE4FF472
:100AE0008051074800F0A4FEFFF7B2FD00BF07F5F4
:100AF0000477BD4680BD00BF80841E00741F0008BF
:100B0000000C024080B500AF0748FFF797FF074889
:100B1000FFF776FE4FF48051054800F097FEFFF78F
:100B200097FD00BF80BD00BF901F0008C09121004D
:100B3000000C024080B5ADF5047D00AF3B1D186090
:100B40003B1D186801F03CF90346C7F80C3207F169
:100B50000803D7F80C220E49184600F047FCC7F8E6
:100B6000080207F108031846FFF768FF0948FFF776
:100B700047FE3B1D1868FFF761FF0748FFF740FE7F
:100B8000FFF766FD00BF07F50477BD4680BD00BFD7
:100B9000A01F000880841E00A025260080B584B018
:100BA00000AF78603960134800F0B6FCF860FB686D
:100BB000022B06D17B6800221A603B6800221A6073
:100BC00013E0FB68012B0AD10A4B1B781A467B689D
:100BD0001A60084B5B781A463B681A6005E07B6830
:100BE00000221A603B6800221A6000BF1037BD4621
:100BF00080BD00BF8004002080B489B000AF786061
:100C00000023BB6100237B610023FB6102233B6166
:100C10000023FB600223BB60484B9B6803F00C037E
:100C2000BB61BB69042B07D0082B09D0002B3FD137
:100C30007B68434A1A603FE07B68424A1A603BE0A7
:100C40003E4B5B6803F480039B0DFB603B4B5B6892
:100C500003F03F03BB60FB68002B0DD0394ABB6833
:100C6000B2FBF3F2354B596847F6C0730B409B0952
:100C700003FB02F3FB610CE0314ABB68B2FBF3F209
:100C80002E4B596847F6C0730B409B0903FB02F3D8
:100C9000FB612A4B5B6803F440331B0C01335B00A0
:100CA0003B61FA693B69B2FBF3F27B681A6003E0CF
:100CB0007B68234A1A6000BF204B9B6803F0F00357
:100CC000BB61BB691B09BB611F4ABB6913441B782D
:100CD000DBB27B617B681A687B69DA407B685A60AB
:100CE000164B9B6803F4E053BB61BB699B0ABB6175
:100CF000154ABB6913441B78DBB27B617B685A6879
:100D00007B69DA407B689A600C4B9B6803F4604314
:100D1000BB61BB695B0BBB610B4ABB6913441B78AE
:100D2000DBB27B617B685A687B69DA407B68DA609A
:100D300000BF2437BD4680BC704700BF003802406A
:100D40000024F40000127A001800002080B483B060
:100D500000AF78600B46FB70FB78002B06D009498A
:100D6000084B1A6B7B6813430B6306E00549054B80
:100D70001A6B7B68DB4313400B6300BF0C37BD4627
:100D800080BC70470038024080B483B000AF786008
:100D90000B46FB70FB78002B06D00949084B1A6CF8
:100DA0007B6813430B6406E00549054B1A6C7B68AE
:100DB000DB4313400B6400BF0C37BD4680BC70475B
:100DC0000038024080B582B000AF0346FB71FB796A
:100DD0001846FFF7D9F900BF0837BD4680BD00BFF0
:100DE00080B483B000AF78600B46FB707B68FA7804
:100DF0001A70012318460C37BD4680BC704700BFEF
:100E000080B485B000AF786039600023FB600AE0F1
:100E10007B685A1C7A603A68511C396012781A70E3
:100E2000FB680133FB603B681B78002BF0D1FB684B
:100E300018461437BD4680BC704700BF80B586B0E9
:100E400000AFF8607A603B600B46FB7200237B6169
:100E50007B68013B7B603B68092B1DD93B681D4AC1
:100E6000A2FB0323DB08F97A7A68F868FFF7E6FF4C
:100E700078617B69FA681344FB6010E0FB7A1946DD
:100E8000F868FFF7ADFFFB680133FB607B69013356
:100E90007B617B68013B7B607B68002BEEDC396803
:100EA0000C4BA3FB0123DA0813469B0013445B00A1
:100EB000CA1AD3B23033DBB21946F868FFF790FF95
:100EC00002467B6913447B617B6918461837BD462F
:100ED00080BD00BFCDCCCCCC80B586B000AFF86073
:100EE0007A603B600B46FB7200237B613B68002B02
:100EF00003DA3B685B423B6101E03B683B617B6836
:100F0000013B7B603B69092B1FD93B68002B0CDA46
:100F10003B692E4AA2FB0323DB085B42F97A7A681D
:100F2000F868FFF7D9FF78610AE03B69274AA2FB1E
:100F30000323DB08F97A7A68F868FFF7CDFF786158
:100F40007B69FA681344FB6025E03B68002B11DAEB
:100F50007B68013B7B600DE0FB7A1946F868FFF780
:100F60003FFFFB680133FB607B6901337B617B687A
:100F7000013B7B607B68002BEEDC3B68002B0ADAD0
:100F80002D21F868FFF72CFF02467B6913447B6133
:100F9000FB680133FB6039690C4BA3FB0123DA08C2
:100FA00013469B0013445B00CA1AD3B23033DBB242
:100FB0001946F868FFF714FF02467B6913447B610A
:100FC0007B6918461837BD4680BD00BFCDCCCCCC60
:100FD00080B588B002AFF8607A601A460B46FB72A3
:100FE0001346BB7200237B617B68013B7B603B6ADD
:100FF0001B09002B20D03B6A1B09BA7AF97A0093AF
:1010000013467A68F868FFF7E3FF02467B691344EA
:101010007B617B69FA681344FB6010E0FB7A194638
:10102000F868FFF7DDFEFB680133FB607B69013385
:101030007B617B68013B7B607B68002BEEDC3B6A5D
:1010400003F00F03092B0BD83B6ADBB203F00F034D
:10105000DBB23033DBB21946F868FFF7C1FE19E0A6
:10106000BB7A002B0BD03B6ADBB203F00F03DBB281
:101070003733DBB21946F868FFF7B2FE0AE03B6A85
:10108000DBB203F00F03DBB25733DBB21946F8686B
:10109000FFF7A6FE7B6901337B617B691846183731
:1010A000BD4680BD80B58AB002AFF860B9607A6095
:1010B0003B600023BB6100237B61FB68002B00F0D9
:1010C000FC80FB6800221A70F7E07B681B78252BF8
:1010D0000BD0FB685A1CFA607A68511C7960127850
:1010E0001A707B6901337B61E7E07B6801331B7811
:1010F000252B0BD1FB685A1CFA6025221A707B68DD
:1011000002337B607B6901337B61D6E02023FB7770
:101110000023BB777B6801337B607B681B78302BB7
:1011200014D13023FB777B6801337B600EE0BB7FFB
:101130001A46920013445B00DAB27B681B781344B2
:10114000DBB2303BBB777B6801337B607B681B780D
:101150002F2B03D97B681B78392BE8D9BA7F7B69A1
:1011600013441A46BB689A4205D9BB68DAB27B6958
:10117000DBB2D31ABB777B681B78583B202B00F27D
:101180008E8001A252F823F0591200089F12000825
:101190009F1200089F1200089F1200089F1200086B
:1011A0009F1200089F1200089F1200089F1200085B
:1011B0009F120008891200080D1200089F120008F3
:1011C0009F1200089F1200089F1200080D120008CD
:1011D0009F1200089F1200089F1200089F1200082B
:1011E0009F1200089F1200089F1200089F1200081B
:1011F0009F120008751200089F12000825120008AF
:101200009F1200089F1200083D120008B87F3B683B
:101210001A1D3A601B68F97F0246F868FFF75CFE0A
:10122000B8613FE0B87F3B681A1D3A601B68F97FE0
:101230000246F868FFF702FEB86133E0B87F3B680A
:101240001A1D3A601B68F97F009300230246F86874
:10125000FFF7BEFEB86125E0B87F3B681A1D3A6013
:101260001B68F97F009301230246F868FFF7B0FE80
:10127000B86117E03B681A1D3A601B681946F868A8
:10128000FFF7BEFDB8610DE03B681A1D3A601B68B0
:10129000DBB21946F868FFF7A3FDB86102E04FF032
:1012A000FF3325E07B6801337B60BB69FA68134438
:1012B000FB607A69BB6913447B617B681B78002BF8
:1012C00004D07A69BB689A42FFF4FFAE7A69BB68C2
:1012D0009A4203D2FB6800221A7008E0FB68013BC7
:1012E000FB60FB6800221A707B69013B7B617B69B4
:1012F00018462037BD4680BD80B584B000AFF86089
:10130000B9607A607B68BA684FF48061F868FFF76B
:10131000C9FE034618461037BD4680BDB0B5ADF5D1
:10132000876D00AF07F10C03186007F1080319601F
:101330003B1D1A6007F11403164A1C4615460FCDD3
:101340000FC40FCD0FC42B6823603A1D07F10803AB
:1013500007F1380012681968FFF7CEFF0346B3F5AE
:10136000806F09DB0C4B1B68DA6807F11403114628
:10137000184600F071F8FEE707F10C0307F1380298
:101380001968104600F068F80346184607F58767A5
:10139000BD46B0BDB01F00085004002080B582B02B
:1013A00000AF78603960064B1B689B683A687968C3
:1013B0001846FFF7B3FF034618460837BD4680BD01
:1013C000500400200FB480B582B000AF07F11403C1
:1013D0003B6039683869FFF7E1FF78607B68184641
:1013E0000837BD46BDE8804004B070470EB480B5F4
:1013F00085B000AF786007F12003BB60BA68F96977
:101400007868FFF779FFF860FB6818461437BD4627
:10141000BDE8804003B0704780B582B000AF78600F
:1014200039600C4B1B689A683B689A4205D0094B9F
:101430001B68DA683B689A4206D17B68DBB21846C3
:10144000FFF7C0FC7B6801E04FF0FF331846083718
:10145000BD4680BD5004002080B584B000AF7860E8
:1014600039600023FB6012E07B681B7839681846FE
:10147000FFF7D2FF0346B3F1FF3F02D14FF0FF3336
:101480000AE0FB680133FB607B6801337B607B68AB
:101490001B78002BE8D1FB6818461037BD4680BD8D
:1014A00080B58AB000AFF860B9601346FB80FB6876
:1014B000BA685A60FB68FA881A81164B3B6254235B
:1014C000BB830023BB840023FB8307F11C03194665
:1014D0004FF0804000F0BAFB01214FF0804000F057
:1014E00039FCFB681B897B6101233B760023BB76BB
:1014F00003237B760023FB76FB685B6807F114020D
:101500001146184600F0ECF8002318462837BD466F
:1015100080BD00BFFFBC010580B586B000AF78601C
:1015200007F1100300221A601A717B681B89BB60E7
:1015300001233B730023BB7303237B730023FB73E3
:101540007B685B6807F108021146184600F0C8F88E
:101550007B685A687B681B891946104600F076F94B
:101560004FF0804300225A6200BF4FF080435B6A15
:1015700044F250629342F8D97B685A687B681B89B1
:101580001946104600F054F94FF0804300225A6289
:1015900000BF4FF080435B6A282BFAD900233B73CE
:1015A0007B685B6807F108021146184600F098F85E
:1015B0004FF0804300225A6206E04FF080435B6A9E
:1015C000642B01D9032386E07B685A687B681B89FA
:1015D0001946104600F012F90346002BEDD04FF0EB
:1015E000804300225A6206E04FF080435B6A642B1E
:1015F00001D903236FE07B685A687B681B89194611
:10160000104600F0FBF80346002BEDD10023BB751C
:101610004DE00023FB7544E000BF7B685A687B689F
:101620001B891946104600F0E9F80346002BF4D058
:1016300000214FF0804000F073FB00BF7B685A68C8
:101640007B681B891946104600F0D8F80346002B2A
:10165000F4D14FF0804000F071FB03467B75BB7DF9
:10166000BA7D07F118010A4412F8082C5200D2B2D0
:1016700007F118010B4403F8082C7B7D282B0DD9AA
:10168000BB7DBA7D07F118010A4412F8082C01321B
:10169000D2B207F118010B4403F8082CFB7D01338B
:1016A000FB75FB7D072BB7D9BB7D0133BB75BB7DBC
:1016B000042BAED93B7D1A463B7C1946BB7C0B44C0
:1016C0009A4201D0022306E0BA7C7B681A703A7C09
:1016D0007B685A70012318461837BD4680BD00BF8D
:1016E00080B487B000AF7860396000237B6100234D
:1016F0003B610023FB6000237B6176E001227B6974
:1017000002FA03F33B613B681A683B691340FB60D4
:10171000FA683B699A4265D17B681A687B695B000D
:10172000032101FA03F3DB431A407B681A607B68EC
:101730001A683B681B7919467B695B0001FA03F361
:101740001A437B681A603B681B79012B03D03B6806
:101750001B79022B2ED17B689A687B695B00032181
:1017600001FA03F3DB431A407B689A607B689A684E
:101770003B685B7919467B695B0001FA03F31A4306
:101780007B689A607B685A687B699BB21946012323
:101790008B40DB431A407B685A607B685B683A6821
:1017A000927911467A6992B201FA02F292B21A4320
:1017B0007B685A607B68DA687B699BB25B000321B7
:1017C00001FA03F3DB431A407B68DA607B68DA686E
:1017D0003B68DB7919467B695B0001FA03F31A4326
:1017E0007B68DA607B6901337B617B690F2B85D96C
:1017F00000BF1C37BD4680BC704700BF80B485B0B9
:1018000000AF78600B467B800023FB737B681A690E
:101810007B881340002B02D00123FB7301E00023DF
:10182000FB73FB7B18461437BD4680BC704700BF76
:1018300080B483B000AF78600B467B807B687A8889
:101840001A8300BF0C37BD4680BC704780B483B09C
:1018500000AF78600B467B807B687A885A8300BF34
:101860000C37BD4680BC704780B485B000AF78604F
:101870000B467B8013467B700023FB600023BB601C
:101880007A787B8803F007039B0002FA03F3FB607E
:101890007B88DB089BB218467B88DB089BB21A4624
:1018A0007B68083253F822207B8803F007039B00F3
:1018B0000F2101FA03F3DB4302EA03017B6800F125
:1018C000080243F822107B88DB089BB21A467B682B
:1018D000083253F82220FB681343BB607B88DB0887
:1018E0009BB21A467B680832B96843F8221000BFE1
:1018F0001437BD4680BC7047ABBE01E00020704786
:10190000002A00D0106001207047069801884BF62D
:10191000AB62914202D1043006907047FEE70000AE
:1019200080B500AF124A124B1B6843F001031360ED
:101930000F4B00229A600E4A0D4B1B6823F08473F4
:1019400023F4803313600A4B0A4A5A60084A084B52
:101950001B6823F480231360054B0022DA6000F03B
:1019600089F8054B4FF000629A6000BF80BD00BF50
:10197000003802401030002400ED00E080B487B051
:1019800000AF00233B6100237B610223FB60002347
:10199000BB6002237B60324B9B6803F00C033B610E
:1019A0003B69042B07D0082B09D0002B3FD12D4BCE
:1019B0002D4A1A603FE02B4B2C4A1A603BE0284B23
:1019C0005B6803F480039B0DBB60254B5B6803F0F1
:1019D0003F037B60BB68002B0DD0244A7B68B2FBC1
:1019E000F3F21F4B596847F6C0730B409B0903FB8A
:1019F00002F37B610CE01C4A7B68B2FBF3F2184BEC
:101A0000596847F6C0730B409B0903FB02F37B61E7
:101A1000134B5B6803F440331B0C01335B00FB602A
:101A20007A69FB68B2FBF3F30E4A136003E00D4BD7
:101A30000D4A1A6000BF0A4B9B6803F0F0031B09B4
:101A40000B4AD35CDBB23B61064B1A683B6922FA56
:101A500003F3044A136000BF1C37BD4680BC7047C7
:101A600000380240540400200024F40000127A00E0
:101A70005804002080B483B000AF00237B600023B3
:101A80003B60354A344B1B6843F480331360324B60
:101A90001B6803F400333B607B6801337B603B6869
:101AA000002B03D17B68B3F5A06FF0D12A4B1B68E4
:101AB00003F40033002B02D001233B6001E000233C
:101AC0003B603B68012B42D1234A234B1B6C43F004
:101AD00080531364214A214B1B6843F480431360F5
:101AE0001D4A1D4B9B6893601B4A1B4B9B6843F42C
:101AF00000439360184A184B9B6843F4A0539360CB
:101B0000154B174A5A60144A134B1B6843F08073F5
:101B1000136000BF104B1B6803F00073002BF9D05B
:101B2000104B40F205621A600B4A0B4B9B6823F086
:101B300003039360084A084B9B6843F002039360D9
:101B400000BF054B9B6803F00C03082BF9D100BFC5
:101B50000C37BD4680BC7047003802400070004022
:101B600008544007003C024080B483B000AF786066
:101B7000054A7B6843F0BF6343F40033D36000BF82
:101B80000C37BD4680BC704700ED00E080B485B0E6
:101B900000AF78600023FB730023BB730F237B73BC
:101BA0007B68DB78002B38D0264BDB68DB4303F403
:101BB000E0631B0AFB73FB7BC3F10403BB737A7BFB
:101BC000FB7B42FA03F37B737B685B781A46BB7B33
:101BD00002FA03F3FB737B689A787B7B1340DAB2DB
:101BE000FB7B1343FB73FB7B1B01FB73164A7B6878
:101BF0001B781344FA7B83F80023134A7B681B7815
:101C00005B09DBB218467B681B7803F01F030121D8
:101C100001FA03F342F820300FE00B497B681B7890
:101C20005B09DBB218467B681B7803F01F030122B7
:101C30009A4000F1200341F8232000BF1437BD462D
:101C400080BC704700ED00E000E100E080B485B0AA
:101C500000AF786039600023FB817B681B88FB81C3
:101C60007B68284A934213D07B68274A93420FD05F
:101C70007B68B3F1804F0BD07B68244A934207D036
:101C80007B68234A934203D07B68224A934208D15F
:101C9000FB8923F07003FB813B685A88FB8913435F
:101CA000FB817B681C4A93420CD07B681B4A9342A1
:101CB00008D0FB8923F44073FB813B681A89FB89B8
:101CC0001343FB817B68FA891A803B685A687B68FA
:101CD000DA623B681A887B681A857B68094A9342F6
:101CE00003D07B68084A934204D13B689B7A9AB23E
:101CF0007B681A867B6801229A8200BF1437BD4632
:101D000080BC704700000140000401400004004016
:101D100000080040000C004000100040001400408B
:101D200080B483B000AF786039607B683A685A62EB
:101D300000BF0C37BD4680BC704700BF80B483B085
:101D400000AF78607B685B6A18460C37BD4680BC84
:101D5000704700BF80B483B000AF78600B46FB7063
:101D6000FB78002B08D07B681B889BB243F00103F3
:101D70009AB27B681A8007E07B681B889BB223F0CD
:101D800001039AB27B681A8000BF0C37BD4680BC45
:101D9000704700BF000000000000000000000000CD
:101DA0000000000000000000000000000000000033
:101DB0000000000000000000000000000000000023
:101DC00090F800F06DE9024520F007016FF0000C7B
:101DD00010F0070491F820F040F049804FF0000423
:101DE0006FF00700D1E9002391F840F000F10800FE
:101DF00082FA4CF2A4FA8CF283FA4CF3A2FA8CF336
:101E00004BBBD1E9022382FA4CF200F10800A4FA9C
:101E10008CF283FA4CF3A2FA8CF3E3B9D1E90423F0
:101E200082FA4CF200F10800A4FA8CF283FA4CF327
:101E3000A2FA8CF37BB9D1E9062301F1200182FAE1
:101E40004CF200F10800A4FA8CF283FA4CF3A2FAE7
:101E50008CF3002BC6D0002A04BF04301A4612BAF5
:101E6000B2FA82F2FDE8024500EBD2007047D1E9F8
:101E7000002304F00305C4F100004FEAC50514F087
:101E8000040F91F840F00CFA05F562EA05021CBF58
:101E900063EA050362464FF00004A9E7000400006E
:101EA0000A576966693A257300000000576173702C
:101EB00031000000746573740000000061646D6996
:101EC0006E313233000000003139322E3136382E77
:101ED00034332E31323900001801000025730D0A09
:101EE000000000007B74656D703A2025643B20681B
:101EF000756D693A2025647D0D0A00007B455849BF
:101F0000547D0D0A0000000041542B43574A4150B4
:101F10003D222573222C222573220D0A0000000089
:101F200041542B43574D4F44453D310D0A000000AD
:101F300041542B4349504D55583D300D0A00000087
:101F400041542B4349505345525645523D300D0A9A
:101F50000000000041542B4349504D4F44453D3053
:101F60000D0A000041542B43495053544F3F0D0A72
:101F70000000000041542B43495053544152543DFA
:101F800022544350222C222573222C25640D0A0052
:101F900041542B434950434C4F53450D0A00000018
:101FA00041542B43495053454E443D25640D0A008E
:101FB000737464696F2E633A20696E63726561732E
:101FC00065204D41585F535452494E475F53495A1B
:041FD000450A0D00B1
:101FD4005858585858000000AC1E0008B41E000899
:101FE400BC1E0008C81E0008000000000102030413
:101FF40001020304060708090000000000000000B5
:1020040001000000000000000000000000000000CB
:1020140000000000000000000000000000000000BC
:1020240000000000000000000000000000000000AC
:10203400000000000000000000000000000000009C
:10204400000000000000000000000000000000008C
:1024240028000020007A030A0000000000000000D9
:08243400010203040607080978
:0400000508000000EF
:00000001FF
